:020000040800F2
:1000000020040020010100080D0200080902000878
:100010000B020008F50100087D0300080000000045
:100020000000000000000000000000003502000891
:10003000F7010008000000000F0200083702000866
:100040001B0100081B0100081B0100081B01000820
:100050001B0100081B0100081B0100081B01000810
:100060001B0100081B0100081B0100081B01000800
:100070001B0100081B0100081B0100081B010008F0
:100080001B0100081B0100081B0100081B010008E0
:100090001B0100081B0100081B0100081B010008D0
:1000A0001B0100081B0100081B0100081B010008C0
:1000B0001B0100081B0100081B0100081B010008B0
:1000C0001B0100081B0100081B0100081B010008A0
:1000D0001B0100081B0100081B0100081B01000890
:1000E0001B0100081B0100081B010008DFF80CD0F1
:1000F00000F02EF8004800472507000820040020E3
:100100000648804706480047FEE7FEE7FEE7FEE7B1
:10011000FEE7FEE7FEE7FEE7FEE7FEE73B0200083C
:10012000ED00000830B50B460146002020220124D6
:1001300009E021FA02F59D4205D303FA02F5491BB5
:1001400004FA02F52844151EA2F10102F1DC30BDCB
:10015000064C074D06E0E06840F0010394E8070014
:1001600098471034AC42F6D3FFF7C4FFA00700084D
:10017000C00700081C48816941F004018161816960
:1001800041F4007181611948016821F470410160F6
:10019000016801601648016841F0020101600168D0
:1001A00041F001010160124908310A6842F400621D
:1001B0000A600F4924310A680A600D492C310A6827
:1001C00042F003020A60016841F004010160016825
:1001D0004907FCD5016841F001010160016841F463
:1001E00080010160704700000010024000080140DB
:1001F00008240140FEE770470248816802781144F4
:100200008160704708000020FEE7FEE770477047F6
:100210000748016841F48001016005480838016819
:100220008907FCD502484430006880B2704700005E
:10023000082401407047FFF7DFBF70470848C169D5
:1002400041F00101C161800441F63F7181620168A2
:1002500041F0010101600169C907FCD0704700004D
:10026000001002402549886940F004008861244854
:10027000026822F00F020260026842F00A02026085
:10028000026822F470620260026842F42062026036
:10029000886940F4006088611A4907200860091DD8
:1002A00040F2E730086017480838016840F2011250
:1002B0001143016013481038016841F0600101608A
:1002C000001D016841F0600101600E4900200C3101
:1002D00008600C49143108600A481C30016841F478
:1002E0000041016007482838016841F001010160C0
:1002F000044818380168C907FCD070470010024054
:1003000004080140282C01400F48816941F0040194
:1003100081610E490A6822F0F0020A600A6842F020
:10032000A0020A60816941F480418161084940F27C
:1003300041300860081D016841F008010160016852
:1003400041F4005101607047001002400408014070
:100350000838014000B5034602E05B1C00F004F8D9
:1003600018780028F9D100BD03490A681206FCD5A7
:100370000149091D0860704700380140FEE7000090
:100380000FB4084B10B504A902AA039800F01CF89A
:10039000044602A9002000F0B8F9204610BC5DF820
:1003A00014FB00000B07000802E008C8121F08C178
:1003B000002AFAD170477047002001E001C1121FE6
:1003C000002AFBD1704700002DE9FF4F8BB0884613
:1003D0000546002606E025280BD0DDE90D129047E2
:1003E0006D1C761C28780028F5D10FB03046BDE88A
:1003F000F08F0024A146A2460122AE4900E004434A
:1004000015F8013F203B02FA03F00842F7D12878A3
:100410002A2810D06FF02F022878A0F13001092986
:1004200015D809EB890102EB410144F0020400EB0D
:1004300001096D1CF0E758F8041B5FEA010903D5B8
:1004400044F40054C9F1000944F002046D1C2878FA
:100450002E2817D115F8010F44F004042A280ED0D5
:100460006FF02F022878A0F1300109290AD80AEB91
:100470008A0102EB410100EB010A6D1CF2E758F81A
:1004800004AB6D1C28786C280FD006DC4C2817D0E4
:1004900068280DD06A2814D104E0742810D07A2876
:1004A0000FD10DE044F400140AE044F4801401E09C
:1004B00044F440146978814202D104F580146D1C23
:1004C0006D1C2878692865D006DC00288DD063284B
:1004D00027D0642806D15DE06E2808D073282AD082
:1004E000752877D0DDE90D129047761CE0E0C4F363
:1004F0000250022809D003280DD0D8F80010042893
:100500000DD00E6008F10408D2E0D8F80010F21700
:10051000C1E90062F6E7D8F800100E80F2E70E702D
:10052000F0E718F8041B8DF8001000208DF801008A
:10053000EB46012003E058F804BB4FF0FF306107A1
:100540004FF0000701D40AE07F1C57450DDA8742BF
:10055000FADB1BF807100029F6D106E07F1C874262
:10056000FCDB1BF807100029F8D1DDE90D23A9EB0E
:1005700007008146214600F0B1F83044C61904E076
:10058000DDE90D121BF8010B90477F1EF8D22146C2
:10059000484688E058F8040BC4F302514FF00A0BA8
:1005A000032900D100B2042900D140B2002802DAA8
:1005B00040422D2102E0210505D52B218DF8241084
:1005C000012104E006E0E10710D02021F6E708AFA2
:1005D000089113E058F8040BC4F302514FF00A0BD2
:1005E000032900D180B2042900D1C0B20021EEE776
:1005F0005946FFF797FD303107F8011D0028F7D164
:10060000ADEB070000F1200B600702D524F4803425
:1006100001E04FF0010ADA4502DDAAEB0B0000E031
:100620000020824600EB0B0108980144A9EB010071
:100630000A90E00306D4DDE90D2321460A9800F074
:100640004DF806444FF0000908E009A911F8090027
:10065000DDE90D12904709F10109761C08998945D9
:10066000F3DBE0030CD5DDE90D2321460A9800F009
:1006700035F8064404E0DDE90D1230209047761C81
:10068000BAF10001AAF1010AF5DC05E0DDE90D127D
:1006900017F8010B9047761CBBF10001ABF1010B81
:1006A000F4DC0A982146DDE90D2300F005F8064444
:1006B0006D1C97E6092801002DE9F041044600254C
:1006C0001E461746880404D405E039462020B0476A
:1006D0006D1C641EF9D52846BDE8F0812DE9F04176
:1006E000044600251E469046C80301D5302700E089
:1006F0002027880404D505E041463846B0476D1CE4
:10070000641EF9D52846BDE8F0810A68531C0B60C9
:10071000107070474FF0804100224A624A6A82425C
:10072000FCD97047FFF726FDFFF788FDFFF7ECFDCA
:10073000FFF798FDDFF85880144C154F40F6FF7511
:100740000A2608F1080800BFFFF762FD2080114863
:10075000FFF700FE208840F2E7314843B0FBF5F098
:1007600080B2B0FBF6F26080A2803860C0F57A708B
:1007700080B2C8F80000C2F1640307A10548FFF782
:10078000FFFD6420FFF7C6FFDEE700000000002049
:10079000342C01401400002025336425336400000C
:1007A000C00700080000002014000000A803000893
:1007B000D4070008140000200C040000B80300084F
:1007C0000000000000000000010000001000000018
:0407D0000000000025
:04000005080000ED02
:00000001FF
